:060000000A128A11122809
:10000800FE00030EF0000408F1000A08F200831253
:1000180003137F08F3000A128A1110290A128A11A1
:100028001528F801F901A70183010A128A111C2871
:100038008316031386018701FF3088008312031398
:1000480086010A128A1198200A128A11C6300A12E9
:100058008A11EA200A128A1154300A128A11FD20E4
:100068000A128A1169300A128A11FD200A128A11AD
:100078006D300A128A11FD200A128A1165300A129F
:100088008A11FD200A128A1172300A128A11FD2083
:100098000A128A113A300A128A11FD200A128A11AC
:1000A8009D300A128A11EA200A128A1131300A1286
:1000B8008A11FD200A128A1134300A128A11FD2091
:1000C8000A128A11D4300A128A11EA200A128A11F5
:1000D8000E3083120313A5000030A600A401952852
:1000E800FF30A5070318A60AFF30A6076230F40000
:1000F8000030F5000A128A11C1200A128A118312EF
:1001080003132508F7007708A70027080A128A11A1
:10011800FD200A128A118312031326082504031DE1
:100128007428061895288F2838300A128A11EA2070
:100138000A128A1108300A128A11EA200A128A1150
:1001480001300A128A11EA200A128A1106300A12AC
:100158008A11EA200A128A110E300A128A11EA203C
:100168000A128A1106300A128A11EA200A128A1122
:1001780080300A128A11EA20080083120313A001B2
:10018800A10175082102031DCB2874082002031859
:100198000800A201A30103302302E8300319220258
:1001A8000318E3280130A2070318A30A0030A307A5
:1001B80003302302E83003192202031CD628013039
:1001C800A0070318A10A0030A107C528F600760881
:1001D8008312031387008612061386170230F40071
:1001E8000030F5000A128A11C12083120313861306
:1001F8000800F60076088312031387008616061394
:1002080086170230F4000030F5000A128A11C12066
:1002180083120313861308008B1C15298B102708DB
:1002280087000B190B117308FF0072088A00710808
:0C0238008400700E8300FE0E7E0E090094
:02400E0071FF40
:00000001FF
