:100000000A128A11FC2F00308A000408840A820731
:1000100000343134323433344134343435343634CA
:10002000423437343834393443342A343034233486
:040030004434003420
:100E5800F600760883120313860007140711871417
:100E68000130F0000030F1000A128A115227831273
:100E7800031387100800F600760883120313860010
:100E88000710071187140130F0000030F1000A1232
:100E98008A1152278312031387100800F201F30105
:100EA80071087302031D5A2F700872020318080094
:100EB800F401F50103307502E830031974020318D0
:100EC800722F0130F4070318F50A0030F5070330D4
:100ED8007502E83003197402031C652F0130F2070C
:100EE8000318F30A0030F307542F0F30F0000030D6
:100EF800F1000A128A1152270A128A1138300A128E
:100F08008A113F270A128A110F300A128A113F27C5
:100F18000A128A1101300A128A113F270A128A110D
:100F28000230F0000030F1000A128A1152270A122A
:100F38008A1106300A128A113F2708008316031304
:100F480086018701FF30880006309F000A128A1147
:100F580079270A128A11F90183120313081EB02F88
:100F680008080F39F7007708F800081AB92F503029
:100F78007902031CCF2F01300A128A113F270A1267
:100F88008A110230F0000030F1000A128A1152274B
:100F98000A128A11F901F908031DD42F8030E52FB0
:100FA8007908143A031DDA2FC030E52F7908283A5A
:100FB800031DE02F9430E52F79083C3A031DEA2FF2
:100FC800D4300A128A113F270A128A117808013E82
:100FD80084000A128A1103200A128A110A128A113D
:100FE8002C270A128A110130F7007708F907B02F69
:080FF80083010A128A11A22FE5
:02400E0071FF40
:00000001FF
