:060000000A128A11122809
:10000800FE00030EF1000408F2000A08F300831250
:1000180003137F08F4000A128A1146280A128A116B
:100028001528F801F90183010A128A111B28FF30EB
:100038008316031386008701FF308800780883122F
:100048000313870040308316031381008B100B16AF
:100058008B170530F7000F30F600F430F500F50B7C
:100068003328F60B3328F70B33280130F5007508D1
:10007800F8070A3078020318F80178088312031386
:1000880087002D288B1C5B288B1008080F39F0007F
:100098007008F9007908013E84000A128A11662066
:1000A8000A128A11F0007008F800780887007408AE
:1000B800FF0073088A0072088400710E8300FE0E28
:1000C8007E0E090000308A000408840A8207003482
:1000D8000134023403340034043405340634003463
:1000E8000734083409340034003400340034003450
:02400E0071FF40
:00000001FF
