:060000000A128A11122809
:10000800FE00030EF1000408F2000A08F300831250
:1000180003137F08F4000A128A114D280A128A1164
:100028001528F601F701F801F90183010A128A116E
:100038001D28FF308316031386008701FF308800D0
:100048007808831203138700C130831603138100D5
:1000580006308312031381008B100B160B118B16BD
:100068008B1703307702203003197602031C3528DA
:100078008B13F601F7018B170130F5007508F807A7
:100088000A3078020318F8017808831203138700EE
:1000980035288B1C64288B1008080F39F00070086D
:1000A800F9007908013E84000A128A117A200A129E
:1000B8008A11F0007008F80078088700F601F70147
:1000C8000B1D6F280B11063081000130F60703184D
:1000D800F70A0030F7077408FF0073088A007208EF
:1000E8008400710E8300FE0E7E0E090000308A0027
:1000F8000408840A820700340134023403340034CB
:100108000434053406340034073408340934003420
:0801180000340034003400340F
:02400E0071FF40
:00000001FF
