:060000000A128A11FC2F18
:100F6C00F001F1017108803AFF00A7307F02031DE8
:100F7C00C12F10307002031808000130F00703185D
:100F8C00F10A0030F107B82F0730831603139F00C6
:100F9C00860101308500831203138601831203132B
:100FAC00051CD42FF201F3017308803AFF00803046
:100FBC007F02031DE32F033072020318D42F831218
:100FCC00031306140A128A11B6270A128A11831205
:100FDC00031306100A128A11B6270A128A1101305D
:100FEC00F2070318F30A0030F307DA2F83010A1211
:040FFC008A11CA2F5D
:02400E0071FF40
:00000001FF
