:060000000A128A11FA2F1A
:100E920038300A128A119C270A128A1108300A1263
:100EA2008A119C270A128A1101300A128A119C2780
:100EB2000A128A1106300A128A119C270A128A1112
:100EC2000E300A128A119C270A128A1106300A125F
:100ED2008A119C270A128A1180300A128A119C27D1
:100EE2000800F20072088312031386000714071128
:100EF2008714F001F1017108803AFF0080307F020F
:100F0200031D852F643070020318982F0130F007FB
:100F12000318F10A0030F1077108803AFF008030AF
:100F22007F02031D962F64307002031C872F8312E9
:100F3200031387100800F20072088312031386005D
:100F4200071007118714F001F1017108803AFF00C0
:100F520080307F02031DAF2F643070020318C22F4E
:100F62000130F0070318F10A0030F1077108803AE6
:100F7200FF0080307F02031DC02F64307002031C0B
:100F8200B12F8312031387100800831603138601FF
:100F920087010A128A1149270A128A11C6300A12D7
:100FA2008A119C270A128A1148300A128A11722762
:100FB2000A128A1145300A128A1172270A128A11FC
:100FC2004C300A128A1172270A128A114C300A1204
:100FD2008A1172270A128A114F300A128A11722755
:100FE2000A128A1121300A128A1172270A128A11F0
:0E0FF200F92FF001F10183010A128A11C62FB6
:02400E0071FF40
:00000001FF
