:060000000A128A11122809
:10000800FE00030EF1000408F2000A08F300831250
:1000180003137F08F4000A128A111B280A128A1196
:100028001528F501F60183010A128A1144288B1359
:100038008B1C24288B100130F0007008F606382835
:100048000B1D38280B117608013A031D2D280714BB
:1000580038280130F0007008F5077508343A031D98
:10006800382801308706F5018B177408FF007308DC
:100078008A0072088400710E8300FE0E7E0E09004D
:100088000F30831603138600870183120313870139
:100098008601C4308316031381008B100B160B11D5
:0600A8008B168B17562891
:02400E0071FF40
:00000001FF
