:060000000A128A11122809
:10000800FE00030E83120313B4000408B5000A08A7
:10001800B6007F08B7000A128A1119280A128A1135
:10002800152883010A128A11632A0C1FE2281E0868
:10003800AE00AF012E08C0002F08C10083160313BD
:100048001E0883120313AE00AF014108B100400837
:10005800B0003008B100B0012E083004B2002F08FB
:100068003104B3003208C0003308C1000030A300D7
:100078000030A2000330A100FF30A0004008F000CB
:100088004108F1000030F11BFF30F200F3000030AE
:10009800F7000030F6000130F500F430F4000A12E1
:1000A8008A1124220A128A11730883120313A700E3
:1000B8007208A6007108A5007008A4000A128A1127
:1000C800ED200A128A11831203132108B901B90716
:1000D8002008B801B8070A30F0000030F1003808ED
:1000E800053EF20039080318013E003EF3000A12EB
:1000F8008A117C210A128A11710883120313BF0125
:10010800BF077008BE01BE070A30F0000030F100DA
:100118003F08F301F3073E08F201F2070A128A11B9
:100128007C210A128A11710883120313BB01BB07D1
:100138007008BA01BA070A30F0000030F1003F0831
:10014800F301F3073E08F201F2070A128A11D721D8
:100158000A128A11710883120313BD01BD077008C2
:10016800BC01BC070F303A05AE000608F0392E0472
:1001780086000815081488100B30AF006230AE00F6
:10018800AE0BC428AF0BC42800000F308312031332
:100198003C05AE000608F0392E0486000811081048
:1001A80088140B30AF006230AE00AE0BD928AF0B0D
:1001B800D9280000831203130C131F153708FF00FA
:1001C80036088A0035088400340E8300FE0E7E0E41
:1001D800090083120313A901A31FFF28A009A1097D
:1001E800A209A309A00A0319A10A0319A20A03195B
:1001F800A30AA901A90AA71F1029A409A509A609E4
:10020800A709A40A0319A50A0319A60A0319A70A24
:100218000130FD007D08A9060030AD000030AC00BB
:100228000030AB000030AA00230822042104200477
:1002380003196529A801A80AA31B30290130FD006C
:100248000310A00DA10DA20DA30DFD0B2429013053
:10025800FD007D08A80720290130FD000310AA0D24
:10026800AB0DAC0DAD0DFD0B322923082702031D84
:10027800472922082602031D472921082502031DB4
:10028800472920082402031C58292008A402210811
:10029800031C210FA5022208031C220FA602230813
:1002A800031C230FA7022A1401300310A30CA20C6D
:1002B800A10CA00CFF3E031D59290130A802031D03
:1002C8003029290803197329AA09AB09AC09AD0912
:1002D800AA0A0319AB0A0319AC0A0319AD0A2D08B7
:1002E800A3002C08A2002B08A1002A08A0000800DF
:1002F800F601F11F8629F009F109F00A0319F10A3C
:10030800F601F60AF31F9129F209F309F20A031913
:10031800F30A0130F4007408F606F701F8017108D1
:1003280070040319C829F501F50AF11BA729013042
:100338000310F00DF10DFF3E031D9C290130F40060
:100348007408F507992901300310F70DF80DFF3EE1
:10035800031DA82971087302031DB42970087202CD
:10036800031CBD297008F2027108031CF303F30291
:10037800771401300310F10CF00CFF3E031DBE2969
:100388000130F502031DA72976080319D029F709BA
:10039800F809F70A0319F80A7808F101F10777084C
:1003A800F001F0070800F601F31FE129F209F3094B
:1003B800F20A0319F30AF601F60AF11FE829F0090F
:1003C800F109F00A0319F10A710870040319152AD2
:1003D800F501F50AF11BFC2901300310F00DF10DB0
:1003E800FF3E031DF1290130F4007408F507EE29DA
:1003F80071087302031D022A70087202031C0A2A7C
:100408007008F2027108031CF303F30201300310B1
:10041800F10CF00CFF3E031D0B2A0130F502031D01
:10042800FC29760803191D2AF209F309F20A0319AF
:10043800F30A7308F101F1077208F001F0070800E8
:100448000030FC000030FB000030FA000030F900FA
:10045800701C422A7408F907750803110318013E35
:10046800031DFA07760803110318013E031DFB0755
:10047800770803110318013E031DFC070130F8003B
:100488000310F40DF50DF60DF70DF80B442A0130A5
:100498000310F30CF20CF10CF00CFF3E031D4C2A78
:1004A8007308720471047004031D2C2A7C08F3007D
:1004B8007B08F2007A08F1007908F000080083163A
:1004C800031386018312031386018316031388011D
:1004D8008312031388018030831603139F00413071
:1004E800831203139F000330C3009730C200C20B6E
:1004F8007B2AC30B7B2A802A831203130C138316CF
:1005080003130C170B178B17831203131F158B2A52
:02400E0071FF40
:00000001FF
