:060000000A128A11EE2F26
:100DE800F300F201731CFC2E7008F1007108F20781
:100DF8000310F00D0310F30CF308031DF62E720810
:100E080008007E088A007F08820005270A128A11D6
:100E18008000840A04087D0603190034FF0A0319B8
:100E2800FE0A092F323400347D340034FA34003499
:100E380077340134DB34013464340034FA34003458
:100E4800F4340134EE340234B6340334323400342A
:100E58007D340034FA34003477340134DB3401341F
:100E68007C34F9347C34063405340534FA007A08C5
:100E78003E3E8400831300088316031392007A0809
:100E8800413E840000088312031392007408F500A1
:100E980001300310F50DFF3E031D4D2F0A30F600FB
:100EA8007608F0007A080A128A11F4260A128A11C2
:100EB800203E7507F7007708840083130008F800C0
:100EC800840A0008F9007908F6007808F50003108C
:100ED800F60CF50C0310F60CF50C750883120313C9
:100EE800950078080339F50004300310F50DFF3E2E
:100EF800031D792F1708CF3975049700080083164A
:100F08000313061486148312031397014408FB0085
:100F18007B08F40045080A128A113A270A128A1136
:100F280083160313071183120313071191010C3061
:100F3800FB007B089704061CC62F0230FD00043016
:100F4800FC00BA30FB00FB0BA72FFC0BA72FFD0BF7
:100F5800A72F00000130FB007B0883120313C5078D
:100F6800033045020318C5014408FB007B08F40060
:100F780045080A128A113A270A128A1183120313A2
:100F88000618C22F861C9F2F0230FD000430FC007B
:100F9800BA30FB00FB0BCE2FFC0BCE2FFD0BCE2F58
:100FA80000000130FB007B0883120313C4070530DF
:100FB80044020318C4014408FB007B08F4004508F8
:100FC8000A128A113A270A128A1183120313861CFD
:100FD8009F2FE92FC401C50183134430FD0007305A
:100FE800FE001630FF00203084000A128A110927FB
:080FF80083010A128A11832F04
:02400E0071FF40
:00000001FF
