:060000000A128A11122809
:10000800FE00030EF4000408F5000A08F600831247
:1000180003137F08F7000A128A11D0290A128A11DD
:100028001528C101C201C301C40183010A128A1142
:10003800F02883120313BD010930BE000030BF0051
:10004800310830042F042E04031D7E283030B200FE
:100058003E08333E8400320883138000FF30BE0719
:100068000318BF0AFF30BF0786280030A3000030FE
:10007800A2000030A1000A30A0003108A700300813
:10008800A6002F08A5002E08A4000A128A114F21E5
:100098000A128A11831203132008303EB2003E0868
:1000A800333E8400320883138000FF30BE070318F4
:1000B800BF0AFF30BF070030A3000030A2000030A5
:1000C800A1000A30A0003108A7003008A6002F08B8
:1000D800A5002E08A4000A128A1190200A128A117B
:1000E800831203132308B1002208B0002108AF00CF
:1000F8002008AE00310830042F042E040319862886
:10010800BF1F39283E08013E333EA2000030A3003D
:100118000A128A11FB210800003083120313AC0075
:100128000030AB000030AA000030A90023082204E8
:10013800210420040319E728AD01AD0AA31BB22846
:100148000130A8000310A00DA10DA20DA30DA80B4E
:10015800A6280130A8002808AD07A2280130A80069
:100168000310A90DAA0DAB0DAC0DA80BB4282308DC
:100178002702031DC92822082602031DC9282108B1
:100188002502031DC92820082402031CDA28200898
:10019800A4022108031C210FA5022208031C220F18
:1001A800A6022308031C230FA702291401300310F9
:1001B800A30CA20CA10CA00CFF3E031DDB280130F0
:1001C800AD02031DB2282C08A3002B08A2002A08A0
:1001D800A1002908A00008000730831603139F0018
:1001E8008312031386018801831603138501860190
:1001F8000430870088018312031305100A128A113C
:100208009D210A128A1130308312031390000530A1
:100218009700831603130C15831203130C110B1785
:100228008B171014C6300A128A1152220A128A1128
:10023800013083120313A2008030A3000A128A112E
:10024800FB210A128A119A300A128A1152220A12C2
:100258008A11831203134408B1004308B00042080E
:10026800AF004108AE000A128A111D200A128A1135
:100278000A3083120313A2008030A3000A128A11E5
:10028800FB210A128A11103083120313C000C00B1D
:100298004B29000016298312031323082204210482
:1002A800200403199429A901A90AA31B692901306B
:1002B800A8000310A00DA10DA20DA30DA80B5D2988
:1002C8000130A8002808A907592923082702031D77
:1002D800772922082602031D772921082502031DF4
:1002E800772920082402031C87292008A402210852
:1002F800031C210FA5022208031C220FA6022308B3
:10030800031C230FA70201300310A30CA20CA10C9D
:10031800A00CFF3E031D88290130A902031D69298D
:100328002708A3002608A2002508A1002408A00089
:1003380008001A3083120313A300F830A200A20B9E
:10034800A329A30BA329000038300A128A115222CC
:100358000A128A110C300A128A1152220A128A11C0
:1003680001300A128A1152220A128A1103308312AA
:100378000313A3009730A200A20BC029A30BC02926
:10038800C52906300A128A1152220A128A118030AF
:100398000A128A11522208008B130C1DEF290C1126
:1003A8008E018F01013085061508F0001608F1004E
:1003B800F201F30103300310F00DF10DF20DF30D0E
:1003C800FF3E031DDF297308C4007208C3007108CB
:1003D800C2007008C1008B177708FF0076088A00F2
:1003E80075088400740E8300FE0E7E0E09008312C9
:1003F80003132308FF00220884000A128A1120220E
:100408000A128A11003803190800831203132308FB
:10041800FF00220884000A128A1120220A128A1177
:100428000A128A1141220A128A1101308312031317
:10043800A2070318A30AFB29FF1B2A2A83137F1884
:1004480083170008840A0319FF0A080002308A008B
:100458000408840A820700345034653472346934DD
:100468006F3464343A3420340034203475347334AF
:100478002034203420342034003483120313A100A4
:10048800210886000814881008151030A000A00B59
:100498004B2A000083120313081108008312031368
:1004A800A100210886000810881008151030A00047
:0E04B800A00B5C2A0000831203130811080039
:02400E0071FF40
:00000001FF
