:060000000A128A11F32F21
:10000800FD01F91F0E28F809F909F80A0319F90A78
:10001800FD01FD0A7808F0007908F100F2018E3040
:10002800FB007B08F3007D08FC007C08F4000A1242
:100038008A1524237008F8007108F9007208FA007C
:100048000800831203133008B6003108B7003208DD
:10005800B8000310370D380DB9003908BA00BA08CE
:10006800031D3D280030B0000030B1000030B20060
:1000780008003308B6003408B7003508B800031084
:10008800370D380DB9003908BF00BF08031D5328C4
:100098000030B0000030B1000030B20008003F0866
:1000A8007B3EB6003608BA073008B6003108B700FC
:1000B8003208B80010300310B80CB70CB60CFF3E6D
:1000C800031D5F283608B9003908BF003308B60099
:1000D8003408B7003508B80010300310B80CB70C56
:1000E800B60CFF3E031D71283608B9003908BF0653
:1000F8008030B6003608BF05B117B417FF30B30516
:10010800FF30B4050030B5050030BB000030BC003E
:100118000030BD000730B6003608BE00301CA228EB
:100128003308BB07340803110318340A031DBC073E
:10013800350803110318350A031DBD0701300310E4
:10014800B20CB10CB00CFF3E031DA3280130031004
:10015800B30DB40DB50DFF3E031DAB280130BE0233
:10016800031D92280930B6003608BE00301CCA2884
:100178003308BB07340803110318340A031DBC07EE
:10018800350803110318350A031DBD070130031094
:10019800B20CB10CB00CFF3E031DCB28013003108C
:1001A800BD0CBC0CBB0CFF3E031DD3280130BE02A6
:1001B800031DBA283B08F0003C08F1003D08F20096
:1001C8003A08B6003608F3003F08B7003708F400CD
:1001D8000A128A152423700883120313B0007108C9
:1001E800B1007208B200080083120313E8005C3003
:1001F800DE005E08E1000130DB07FF305B078400AA
:100208000A128A1500200A128A11DE005E08E90027
:10021800E9080319CC296908253A03191F2969082F
:10022800DE00680884005E08831380000130DE0069
:100238005E08E807FF28E2010130DB07FF305B07B3
:1002480084000A128A1500200A128A11E900003A6D
:100258000319CC29643A031935290D3A03193529AC
:10026800FF286108840083130008E400840A00085A
:10027800E5000230DE005E08E107E51F4C29033087
:10028800DE005E08E204E409E509E40A0319E50A68
:10029800E901E90A6908053A031973296908DE00C2
:1002A8005E07013E84000A128A1500200A128A118C
:1002B800DF000A128A1500200A128A11E00060087D
:1002C8006502031D69295F086402031C7329013054
:1002D800DE005E08E9076908053A031D522962082D
:1002E8000339031982292D30DE00680884005E086E
:1002F800831380000130DE005E08E8076908DE002D
:100308005E08E300FF30DE005E08E3076308FF3A9B
:100318000319FF280A30F8000030F9006308DE00EE
:100328005E07013E84000A128A1500200A128A110B
:10033800F0000A128A1500200A128A11F1006508D5
:10034800F301F3076408F201F2070A128A15522131
:100358000A128A117108FB01FB077008FA01FA07F3
:100368000A128A151E210A128A117808303E831251
:100378000313DF005F08E9006908DE0068088400ED
:100388005E08831380000130DE005E08E8078629D6
:10039800680884008313800108008312031340084F
:1003A800C6004108C7004208C8000310470D480DA1
:1003B800C9004908CC004308C6004408C7004508DE
:1003C800C8000310470D480DC9004908CB004C0868
:1003D8000319FA294B084C020318012A4C03FF3A67
:1003E8004B07C60019304602031C012A4308C00007
:1003F8004408C1004508C20008004B08031908005A
:100408004C084B020318102A4B03FF3A4C07C6004E
:1004180019304602031808000630C6004608CA000C
:10042800C21BCA17C51B4A17C117FF30C005FF30CA
:10043800C1050030C205C417FF30C305FF30C4052D
:100448000030C5054B084C020318502A0130031030
:10045800C30DC40DC50DFF3E031D2B2A0130CB0271
:100468004B084C0603194B2A0130CA024A080739BF
:1004780003194B2A2A2A01300310C20CC10CC00CE4
:10048800FF3E031D402A0130C6004608CC074C0831
:100498004B060319792A3F2A4C084B020318792A7C
:1004A80001300310C00DC10DC20DFF3E031D552ABA
:1004B8000130CC024B084C060319752A0130CA02D8
:1004C8004A0807390319752A542A01300310C50C44
:1004D800C40CC30CFF3E031D6A2A0130C60046083F
:1004E800CB074C084B06031D692ACA1F8B2AFF300D
:1004F800C006FF30C106FF30C2060130C007003019
:1005080003180130C107003003180130C2074A1F21
:100518009D2AFF30C306FF30C406FF30C5060130F0
:10052800C307003003180130C40700300318013036
:10053800C507CA014008C307410803110318410A47
:10054800031DC407420803110318420A031DC50707
:10055800C51FC02AFF30C306FF30C406FF30C506DA
:100568000130C307003003180130C40700300318F6
:100578000130C507CA01CA0A4308F0004408F1005F
:100588004508F2004C08C6004608F3004A08C700B0
:100598004708F4000A128A152423700883120313EB
:1005A800C0007108C1007208C20008008316031356
:1005B800B6012B082A042904031D042B0030F0007F
:1005C8000030F1000030F2002C08F3002D08F40090
:1005D8002E08F5000A128A1561220A128A11031CD4
:1005E800FB2A213083160313CC000030CD000030E5
:1005F80083160313A9000030AA000030AB000800DE
:100608002E082D042C04031D102B0030A900803067
:10061800AA003F30AB0008002908F0002A08F100C2
:100628002B08F2000030F3000030F4000030F50031
:100638000A128A1561220A128A110318902B83164E
:1006480003132C0883120313CD00831603132D08FC
:1006580083120313CE00831603132E088312031389
:10066800CF000A128A1505240A128A11831203136D
:10067800500883160313BA00831203134F08831616
:100688000313B900831203134E0883160313B8002B
:10069800831203134D0883160313B7003A08FB00AF
:1006A8003908FA003808F9003708F8000A128A15DC
:1006B800F3200A128A11831603132E087A06031DE3
:1006C8006B2B2D087906031D6B2B2C087806031954
:1006D800782B2130CC000030CD000030A90000304C
:1006E800AA000030AB00080037080139AF002F0816
:1006F800B6002908F0002A08F1002B08F2000A16B3
:100708008A11D8270A128A11700883160313A900C0
:100718007108AA007208AB00831603132908831214
:100728000313D700831603132A0883120313D80070
:10073800831603132B0883120313D9000A128A1590
:1007480030270A128A1183120313570883160313DA
:10075800B00083120313580883160313B1008312E1
:100768000313590883160313B2002C0883120313CA
:10077800B000831603132D0883120313B1008316E8
:1007880003132E0883120313B200831603133008D1
:1007980083120313B3008316031331088312031360
:1007A800B40083160313320883120313B5000A1228
:1007B8008A1125200A128A1183120313300883161E
:1007C8000313B30083120313310883160313B40011
:1007D80083120313320883160313B50033088312F8
:1007E8000313EC0083160313340883120313ED007C
:1007F80083160313350883120313EE000A128A11B5
:100808002E240A128A11831203136C088316031309
:10081800A900831203136D0883160313AA00831219
:1008280003136E0883160313AB0036080319080078
:100838002908F0002A08F1002B08F2000A168A118C
:10084800D827700883160313A9007108AA00720834
:10085800AB000800831203136E086D046C04031DBB
:100868003C2C0030EC008030ED003F30EE000800FA
:100878007230F0003130F1004430F2006C08F300BF
:100888006D08F4006E08F5000A128A1561220A1232
:100898008A1103185D2C223083160313CC00003014
:1008A800CD00FF308312EC007F30ED007F30EE008A
:1008B8000800831203136C08F0006D08F1006E083D
:1008C800F2004930F3003A30F400C430F5000A125F
:1008D8008A1561220A128A110318812C2230831684
:1008E8000313CC000030CD00003083120313EC005A
:1008F8000030ED000030EE000800831203136C088E
:10090800F0006D08F1006E08F2000030F3000030CE
:10091800F4000030F5000A128A1561220A128A11C1
:100928000030031C013083120313EF006F08831695
:100938000313A80028080319B82C831203136C08A2
:10094800F0006D08F1006E08F2000A168A11D82727
:100958000A128A11700883120313EC007108ED0063
:100968007208EE0083160313AA308312B000B83061
:10097800B1003F30B2006C08B3006D08B4006E08D7
:10098800B5000A128A1125200A128A11831203134C
:100998003008EC003108ED003208EE006C08E30086
:1009A8006D08E4006E08E5000A128A1593240A12FD
:1009B8008A1183120313630883160313A00083129A
:1009C8000313640883160313A10083120313650835
:1009D80083160313A200200883120313CD00831685
:1009E8000313210883120313CE008316031322086E
:1009F80083120313CF000A128A1505240A128A11DA
:100A0800831203134E0883160313A701A707831243
:100A180003134D0883160313A601A6072708F90137
:100A2800F9072608F801F8070A128A1104200A12A1
:100A38008A11780883120313CD007908CE007A084A
:100A4800CF006C08D0006D08D1006E08D2000A12E1
:100A58008A15B1200A128A11831203134D08EC007B
:100A68004E08ED004F08EE006C08CD006D08CE0072
:100A78006E08CF000B30EF006F08D0000930D100AE
:100A88000030D2000A128A158C230A128A118312A6
:100A980003134D08D7004E08D8004F08D900831615
:100AA8000313270883120313DB01DB0783160313E1
:100AB800260883120313DA01DA070A128A152C258D
:100AC8000A128A11831203135708EC005808ED0024
:100AD8005908EE0083160313280803190800FF308D
:100AE800A3007F30A4007F30A500831203136E0893
:100AF800831603132506031D8F2D831203136D0818
:100B0800831603132406031D8F2D831203136C0809
:100B1800831603132306031D9A2D00308312031333
:100B2800EC000030ED000030EE00080083126C0885
:100B3800A0006D08A1006E08A2000030A30080305C
:100B4800A4003F30A5000A128A15782683120313E1
:100B58002008EC002108ED002208EE000800003013
:100B680083160313AC006030AD004130AE00003096
:100B7800A9000030AA004030AB000A128A11DA221C
:100B88000A128A11831603132908BD002A08BE0019
:100B98002B08BF003D0883120313CD0083160313EF
:100BA8003E0883120313CE00831603133F088312F3
:100BB8000313CF000A128A1505240A128A11831218
:100BC80003134E0883160313C101C10783120313CD
:100BD8004D0883160313C001C007C201C301C40135
:100BE800C501C601860188018312031386018801A5
:100BF8000A168A11E0270A128A110A128A15C525CF
:100C08000A128A110A168A11C2270A128A1180301A
:100C18000A128A154E200A128A11E5300A128A151C
:100C28004E200A128A110A168A11BB270A128A1143
:100C380081300A128A154E200A128A1101300A12CE
:100C48008A15CD200A128A1183160313BB00BC0132
:100C58003B08C2003C08C30000300A128A15CD20A8
:100C68000A128A1183160313BB003B08C6000A1632
:100C78008A11C9270A128A111430F0000030F100D5
:100C88000A128A157D200A128A1183160313430853
:100C9800BC004208BB000630FF000310BB0DBC0DB2
:100CA800FF0B512E3B08C2003C08C3004608BB009E
:100CB80002300310BB0CFF3E031D5D2E3B08BC0039
:100CC8003C08C60042084604C2004308C300430863
:100CD800F901F9074208F801F8070A128A1569208C
:100CE8000A128A11780883120313A3007908A40052
:100CF8007A08A500831603134108F901F90740088B
:100D0800F801F8070A128A1104200A128A117808D1
:100D180083120313A0007908A1007A08A2000A121E
:100D28008A1578260A128A11831203132008B30041
:100D38002108B4002208B5000030B000FA30B10034
:100D48004230B2000A128A1125200A128A1183122F
:100D580003133008C3003108C4003208C50000304E
:100D6800C000C030C100C030C2000A128A11D121AF
:100D78000A128A11831203134008CD004108CE00DD
:100D88004208CF000A128A1505240A128A11831212
:100D980003134E0883160313CB01CB0783120313E7
:100DA8004D0883160313CA01CA070A168A11C227F7
:100DB8000A128A1180300A128A154E200A128A11E4
:100DC800E3300A128A154E200A128A110A168A116D
:100DD800C9270A128A111430F0000030F1000A12F3
:100DE8008A157D200A128A1183160313C6010A1672
:100DF8008A11C2270A128A1180300A128A154E20D7
:100E08000A128A11E3300A128A154E200A128A1130
:100E18000A168A11BB270A128A1181300A128A150A
:100E28004E200A128A1101300A128A15CD200A12A0
:100E38008A1183160313BB00BC013B08C4003C089D
:100E4800C50000300A128A15CD200A128A118316AD
:100E58000313BB003B08C6000A168A11C9270A12E9
:100E68008A111430F0000030F1000A128A157D2032
:100E78000A128A11831603134508BC004408BB00F4
:100E88000630FF000310BB0DBC0DFF0B462F3B08BF
:100E9800C4003C08C5004608BB0002300310BB0C68
:100EA800FF3E031D522F3B08BC003C08C600440807
:100EB8004604C4004508C500663083120313C00009
:100EC8003B30C100C230C200B830B0002F30B10092
:100ED8004330B200831603134108F901F9074008AB
:100EE800F801F8070A128A1104200A128A117808F0
:100EF80083120313A0007908A1007A08A2008316C0
:100F080003134508F901F9074408F801F8070A121C
:100F18008A1569200A128A11780883120313A3001C
:100F28007908A4007A08A5000A128A1578260A12F8
:100F38008A11831203132008B3002108B400220881
:100F4800B5000A128A1125200A128A118312031386
:100F58003008C3003108C4003208C5000A128A11DB
:100F6800D1210A128A11831203134008831603132E
:100F7800C70083120313410883160313C8008312A2
:100F88000313420883160313C9000A168A11C227DD
:100F98000A128A1180300A128A154E200A128A1102
:100FA800E5300A128A154E200A128A110A168A1189
:100FB800C9270A128A111430F0000030F1000A1211
:100FC8008A157D200A128A110A128A1512220A121B
:100FD8008A110A128A15BE220A128A11062E83164F
:100FE8000313C701C801C901CA01CB01CC01CD0156
:100FF80083010A128A11B32D08308A000408840A72
:1010080082070034013400340A3400346434003474
:10101800E834033410342734003480343F347234D5
:1010280031343F34FE3475343E34583463343D34FF
:1010380095341D343C34C534AE343A3479342134D3
:1010480039349434803437349334A73435345634AF
:1010580015343434003400340034003480343F34E0
:10106800F034FF34BE34E234A9343E348334763469
:10107800BE34AE342B343E343C34C334BD34D23465
:1010880013343D347834D334BB34253464340034D9
:10109C00F0000A168A11D0277008831203139300EC
:1010AC000800F300730883120313860008148814D5
:1010BC000130F0000030F1000A128A157D208312F5
:1010CC000313881008007808F0007908F100F20189
:1010DC008E30FB007B08F300F4010A128A152423DE
:1010EC007008F8007108F9007208FA00080071081D
:1010FC00803AFF0080307F02031D86280130700289
:10110C00031C0800F930F2000000F20B8A288E282C
:10111C000000FF30F0070318F10AFF30F1077D28BB
:10112C00F30073088312031386000810881401302F
:10113C00F0000030F1000A128A157D200A128A157F
:10114C008312031388100130F0000030F1000A12F2
:10115C008A157D200800803083120313CF065008B7
:10116C00C0005108C1005208C2004D08C3004E080F
:10117C00C4004F08C5000A128A11D121831203132F
:10118C004008CD004108CE004208CF000800F10015
:10119C000A168A11D0270A128A1583160313911581
:1011AC000A168A11D0270A128A1583120313130800
:1011BC00F0007008F2000A168A11D0270A128A155C
:1011CC00F108031DED28831603139116F0288316DE
:1011DC00031391121116720808008E30FC007C0863
:1011EC00FD00FF307B050319092901300310FB0CAE
:1011FC00FA0CF90CF80CFF3E031DFC280130FC0026
:10120C007C08FD07F7287808F0007908F1007A08C7
:10121C00F2007D08FC007C08F300F4010A128A1528
:10122C0024237008F8007108F9007208FA0008000D
:10123C007908780403194B29FD01FD0AF91B3229A1
:10124C0001300310F80DF90DFF3E031D2729013065
:10125C00FC007C08FD07242979087B02031D382932
:10126C0078087A02031C40297808FA027908031CD2
:10127C00FB03FB0201300310F90CF80CFF3E031DBD
:10128C0041290130FD02031D32297B08F901F907C0
:10129C007A08F801F8070800F501F60171087004E6
:1012AC0003198929F701F70AF11B6829013003108A
:1012BC00F00DF10DFF3E031D5D290130F4007408A3
:1012CC00F7075A2901300310F50DF60DFF3E031DEB
:1012DC00692971087302031D752970087202031CB9
:1012EC007E297008F2027108031CF303F3027514D3
:1012FC0001300310F10CF00CFF3E031D7F2901306F
:10130C00F702031D68297608F101F1077508F00151
:10131C00F0070800720871047004031DA2297308F9
:10132C00840083138001840A80010030F0000030B7
:10133C00F1000030F200080072087F39F400F5016A
:10134C000310F40DF50D73088400740883138000EA
:10135C00840A75088000710D710D0139F400F501D6
:10136C007308840074088004840A75088004730868
:10137C00840082308007840F00080318000AFF00E5
:10138C00FF307F0780008403720880393F38F200F9
:10139C00F113080083120313E2018E30DF005F08A3
:1013AC00E100DE1FE629DB09DC09DD09DE09DB0AC9
:1013BC000319DC0A0319DD0A0319DE0AE201E20A49
:1013CC00FF305E050319F82901300310DE0CDD0C2B
:1013DC00DC0CDB0CFF3E031DEB290130DF005F084A
:1013EC00E107E6295B08F0005C08F1005D08F200FB
:1013FC006108DF005F08F3006208E0006008F40099
:10140C000A128A152423700883120313DB00710857
:10141C00DC007208DD0008008A300A128A1596205A
:10142C000A128A15443083120313EA006A08DB009F
:10143C00831603134B0883120313DD01DD07831698
:10144C0003134A0883120313DC01DC07A0300A12D1
:10145C008A11F8200A128A1583160313AA01AB010C
:10146C002A08A03E8400831380080319502A2A08F6
:10147C00A03E8400831300080A128A1557200A1212
:10148C008A15013083160313AA070318AB0A003020
:10149C00AB07362A25300A128A1557200A128A15EC
:1014AC0020300A128A1557200A128A1520300A1287
:1014BC008A1557200800F21F882A0030F6000030E9
:1014CC00F7008030F8007009F9007109FA00720910
:1014DC00FB00F90A0319FA0A0319FB0A7908F60743
:1014EC007A0803187A0F7B2A7C2AF7077B080318E3
:1014FC007B0F812A822AF8077608F0007708F10022
:10150C007808F200F51FAF2A0030F6000030F70023
:10151C008030F8007309F9007409FA007509FB00B2
:10152C00F90A0319FA0A0319FB0A7908F6077A086B
:10153C0003187A0FA22AA32AF7077B0803187B0F3C
:10154C00A82AA92AF8077608F3007708F400780887
:10155C00F5008030F2068030F50675087202031D26
:10156C00080074087102031D08007308700208005B
:10157C00CD300A128A1596200A128A15443083122D
:10158C000313EA006A08DB0083160313470883126F
:10159C000313CD0083160313480883120313CE00E4
:1015AC0083160313490883120313CF000A128A15FA
:1015BC0005240A128A15831203134E08DD01DD0778
:1015CC004D08DC01DC07A0300A128A11F8200A123F
:1015DC008A1583160313AA01AB012A08A03E8400C6
:1015EC008313800803190D2B2A08A03E8400831353
:1015FC0000080A128A1557200A128A150130831620
:10160C000313AA070318AB0A0030AB07F32A2030E8
:10161C000A128A1557200A128A1543300A128A15A3
:10162C0057200A128A1520300A128A1557200A12DE
:10163C008A1520300A128A155720080073080319DE
:10164C002C2B720871047004031D3F2B0030F0002A
:10165C000030F1000030F20008000130F500750890
:10166C00F30701300310F20CF10CF00CFF3E031DDC
:10167C00382BFE30720503195A2B332B0130F50031
:10168C007508F3070130F007003003180130F1073B
:10169C00003003180130F20701300310F20CF10C8A
:1016AC00F00CFF3E031D532BFF3072050319692B01
:1016BC00442B0130F30201300310F00DF10DF20D4B
:1016CC00FF3E031D622BF11F5F2B7318732BFF3032
:1016DC00F0057F30F105FF30F2050310F30C7308B1
:1016EC00F500F601F70110300310F50DF60DF70DAE
:1016FC00FF3E031D7A2B7508F0047608F104770879
:10170C00F204740803190800F2170800033083125E
:10171C000313D3005308F00051080A168A11EF275F
:10172C000A128A1583120313500784000A128A15B1
:10173C0000200A128A15D4000A128A1500200A12F7
:10174C008A15D5000A128A1500200A128A15D600AD
:10175C00520851040319FE2B0330D3005308F00038
:10176C00FF30D1070318D20AFF30D20751080A16EE
:10177C008A11EF270A128A1583120313500784006B
:10178C000A128A1500200A128A15C0000A128A153C
:10179C0000200A128A15C1000A128A1500200A12AA
:1017AC008A15C2005408B0005508B1005608B200A2
:1017BC004D08B3004E08B4004F08B5000A128A1148
:1017CC0025200A128A15831203133008C30031082E
:1017DC00C4003208C5000A128A11D1210A128A15D6
:1017EC00831203134008D4004108D5004208AD2BE6
:1017FC005408CD005508CE005608CF0008008312BF
:10180C0003134D08D1004E08D2004F08D30003102B
:10181C00520D530DD4005408DA00DA08031D1F2CA6
:10182C000030D0000030CF000030CE000030CD00B2
:10183C0008004D08D1004E08D2004F08D3001730D5
:10184C000310D30CD20CD10CFF3E031D262C5108D7
:10185C00D4005408D500CE17FF30CD05FF30CE058F
:10186C000030CF054D08D6004E08D7004F08D800E1
:10187C00D9018E30DA02DA1F612C5A08803A8F3E79
:10188C000318512C0030D0000030CF000030CE00B7
:10189C000030CD00080001300310D90CD80CD70C47
:1018AC00D60CFF3E031D522C0130D1005108DA0733
:1018BC0003197C2C512C18305A02031C792C003043
:1018CC00D0000030CF000030CE000030CD0008003A
:1018DC000130D1000310D60DD70DD80DD90DD10B79
:1018EC00702C0130DA02DA08031D6E2C550803192E
:1018FC008A2CD609D709D809D909D60A0319D70AC7
:10190C000319D80A0319D90A5908D0005808CF006E
:10191C005708CE005608CD00080083120313630845
:10192C00F0006408F1006508F2006A30E600660811
:10193C00F3000A128A1590210A128A1583120313D6
:10194C00EB1FCD2C6308F0006408F1006508F20071
:10195C000030F3000030F4000030F5000A128A1554
:10196C0061220A128A150318C42C00308312031347
:10197C00E3008030E400BF30E50008000030831243
:10198C000313E3000030E4000030E50008000030F1
:10199C006B02153003196A02031808006308CD00A6
:1019AC006408CE006508CF000A128A1505240A12B5
:1019BC008A15831203135008DE004F08DD004E0811
:1019CC00DC004D08DB000A128A15D0210A128A1598
:1019DC00831203135B08E7005C08E8005D08E9006C
:1019EC006308F0006408F1006508F2006708F30072
:1019FC006808F4006908F5000A128A1561220A12B7
:101A0C008A150318232D003083120313C000803075
:101A1C00C100BF30C2006708C3006808C400690871
:101A2C00C5000A128A11D121831203134008E30066
:101A3C004108E4004208E50008008312031367081C
:101A4C00E3006808E4006908E5000800831203134A
:101A5C00590858045704031D3A2D0030D7000030A4
:101A6C00D8000030D900080059087F39DC00DD01AE
:101A7C000310DC0DDD0D5C08DA070318DB0A5D08CA
:101A8C00DB07580D580D0139DC00DD015C08DA0765
:101A9C000318DB0A5D08DB07DB1F632D223083167E
:101AAC000313CC000030CD00003083120313D70099
:101ABC000030D8000030D90008005B08803AFF00E5
:101ACC0081307F02031D6C2D00305A02031CAC2D9B
:101ADC00223083160313CC000030CD008312031385
:101AEC005708F0005808F1005908F2000030F300D4
:101AFC000030F4000030F5000A128A1561220A1237
:101B0C008A150318A32DFF3083120313DE007F30D8
:101B1C00DF007F30E0005E08F0005F08F100600835
:101B2C00F2000A168A11D827700883120313D70003
:101B3C007108D8007208D9000800FF308312031313
:101B4C00D7007F30D8007F30D900080083120313F0
:101B5C005B08DD005A08DC005D0DDD0CDC0C59085F
:101B6C005C0680395C06D9005A080139DC00DC0CB3
:101B7C00DC0C58085C067F395C06D8000800143071
:101B8C00F0000030F1000A128A157D200A128A1525
:101B9C0038300A128A1596200A128A1501300A1258
:101BAC008A1596200A128A150530F0000030F100D3
:101BBC000A128A157D200A128A1506300A128A1515
:101BCC0096200A128A150C300A128A1596200A12CF
:101BDC008A1580300A128A1596200A128A15483006
:101BEC000A128A1557200A128A1575300A128A159C
:101BFC0057200A128A156D300A128A1557200A12BC
:101C0C008A1569300A128A1557200A128A1564300F
:101C1C000A128A1557200A128A1569300A128A1577
:101C2C0057200A128A1574300A128A1557200A1284
:101C3C008A1579300A128A1557200A128A153A30F9
:101C4C000A128A1557200A128A15C0300A128A15F0
:101C5C0096200A128A1554300A128A1557200A1235
:101C6C008A1565300A128A1557200A128A156D30AA
:101C7C000A128A1557200A128A1570300A128A1510
:101C8C0057200A128A1565300A128A1557200A1233
:101C9C008A1572300A128A1557200A128A15613079
:101CAC000A128A1557200A128A1574300A128A15DC
:101CBC0057200A128A1575300A128A1557200A12F3
:101CCC008A1572300A128A1557200A128A15653045
:101CDC000A128A1557200A128A153A300A128A15E6
:101CEC0057200800831203132308A6002408A7001A
:101CFC002508A8000310270D280DA9002908AE00FF
:101D0C00AE08031D902E0030A0000030A100003062
:101D1C00A20008002008A6002108A7002208A8009D
:101D2C000310270D280DA9002908AF00AF08031DCB
:101D3C00A62E0030A0000030A1000030A200080048
:101D4C000030AB000030AC000030AD0089302F0704
:101D5C00A6002608AE022308A6002408A700250822
:101D6C00A80010300310A80CA70CA60CFF3E031DF6
:101D7C00B82E2608A9002908AF002008A6002108C3
:101D8C00A7002208A80010300310A80CA70CA60C62
:101D9C00FF3E031DCA2E2608A9002908AF06803075
:101DAC00A6002608AF05A417FF30A305FF30A40535
:101DBC000030A505A117FF30A005FF30A1050030AC
:101DCC00A2051830A6002608AA0001300310AB0D9E
:101DDC00AC0DAD0DFF3E031DEC2E22082502031D9C
:101DEC00FD2E21082402031DFD2E20082302031CB6
:101DFC000A2F2008A3022108031C210FA402220889
:101E0C00031C220AA5022B1401300310A30DA40DF0
:101E1C00A50DFF3E031D0B2F0130AA02031DEB2E57
:101E2C002B08F0002C08F1002D08F2002E08A6005B
:101E3C002608F3002F08A7002708F4000A128A15B9
:101E4C002423700883120313A0007108A1007208E8
:101E5C00A2000800831203135708F0005808F10081
:101E6C005908F2000030F3000030F4000030F500A7
:101E7C000A128A1561220A128A150318542F21306E
:101E8C0083160313CC000030CD00003083120313F3
:101E9C00D7000030D8000030D9000800831203139B
:101EAC00590858045704031D6A2F22308316031354
:101EBC00CC000030CD00003083120313D70000306B
:101ECC00D8000030D90008000030C0008030C100BC
:101EDC00BF30C2000030B0000030B1004030B20062
:101EEC005B30DA005A08F3005708F0005808F1008C
:101EFC005908F2000A128A1590210A128A157008E4
:101F0C0083120313B3007108B4007208B5000A12EF
:101F1C008A1125200A128A15831203133008C30074
:101F2C003108C4003208C5000A128A11D1210A12E4
:101F3C008A15831203134008D7004108D8004208C1
:101F4C00D900FF30DB070318DC0AFF30DC07570829
:101F5C00CD005808CE005908CF002930DA005A08B5
:101F6C00D0000830D1000030D2000A128A158C2320
:101F7C000A128A15831203134D08D7004E08D80095
:101F8C004F08D9005708C0005808C1005908C200B2
:101F9C007230B0003130B1003F30B2005C08F90152
:101FAC00F9075B08F801F8070A128A1104200A12D3
:101FBC008A15780883120313B3007908B4007A08E1
:101FCC00B5000A128A1125200A128A1583120313EE
:101FDC003008C3003108C4003208C5000A128A1147
:101FEC00D121831203134008D7004108D8004208BE
:041FFC00D900080000
:102F76000A168A11D02783160313911408000A161D
:102F86008A11D02783160313111408000A168A1112
:102F9600D02783160313111508008316031311088F
:102FA6001F3903191419D02F080072087104700410
:102FB600031908008030F2060800831603138715EC
:102FC6000716283083120313940083160313910106
:102FD6009401093093000800F300F201731CF72FE7
:102FE6007008F1007108F2070310F00D0310F30CDE
:0A2FF600F308031DF12F7208080014
:02400E0072FF3F
:00000001FF
